{
  "_format": "hh-sol-artifact-1",
  "contractName": "Escrow",
  "sourceName": "contracts/Escrow.sol",
  "abi": [
    {
      "inputs": [
        {
          "internalType": "address",
          "name": "_nftAddress",
          "type": "address"
        },
        {
          "internalType": "address payable",
          "name": "_seller",
          "type": "address"
        },
        {
          "internalType": "address",
          "name": "_inspector",
          "type": "address"
        },
        {
          "internalType": "address",
          "name": "_lender",
          "type": "address"
        }
      ],
      "stateMutability": "nonpayable",
      "type": "constructor"
    },
    {
      "inputs": [
        {
          "internalType": "uint256",
          "name": "",
          "type": "uint256"
        },
        {
          "internalType": "address",
          "name": "",
          "type": "address"
        }
      ],
      "name": "approval",
      "outputs": [
        {
          "internalType": "bool",
          "name": "",
          "type": "bool"
        }
      ],
      "stateMutability": "view",
      "type": "function"
    },
    {
      "inputs": [
        {
          "internalType": "uint256",
          "name": "_nftID",
          "type": "uint256"
        }
      ],
      "name": "approveSale",
      "outputs": [],
      "stateMutability": "nonpayable",
      "type": "function"
    },
    {
      "inputs": [
        {
          "internalType": "uint256",
          "name": "",
          "type": "uint256"
        }
      ],
      "name": "buyer",
      "outputs": [
        {
          "internalType": "address",
          "name": "",
          "type": "address"
        }
      ],
      "stateMutability": "view",
      "type": "function"
    },
    {
      "inputs": [
        {
          "internalType": "uint256",
          "name": "_nftID",
          "type": "uint256"
        }
      ],
      "name": "cancelSale",
      "outputs": [],
      "stateMutability": "nonpayable",
      "type": "function"
    },
    {
      "inputs": [
        {
          "internalType": "uint256",
          "name": "_nftID",
          "type": "uint256"
        }
      ],
      "name": "depositEarnest",
      "outputs": [],
      "stateMutability": "payable",
      "type": "function"
    },
    {
      "inputs": [
        {
          "internalType": "uint256",
          "name": "",
          "type": "uint256"
        }
      ],
      "name": "escrowAmount",
      "outputs": [
        {
          "internalType": "uint256",
          "name": "",
          "type": "uint256"
        }
      ],
      "stateMutability": "view",
      "type": "function"
    },
    {
      "inputs": [
        {
          "internalType": "uint256",
          "name": "_nftID",
          "type": "uint256"
        }
      ],
      "name": "finalizeSale",
      "outputs": [],
      "stateMutability": "nonpayable",
      "type": "function"
    },
    {
      "inputs": [],
      "name": "getBalance",
      "outputs": [
        {
          "internalType": "uint256",
          "name": "",
          "type": "uint256"
        }
      ],
      "stateMutability": "view",
      "type": "function"
    },
    {
      "inputs": [
        {
          "internalType": "uint256",
          "name": "",
          "type": "uint256"
        }
      ],
      "name": "inspectionPassed",
      "outputs": [
        {
          "internalType": "bool",
          "name": "",
          "type": "bool"
        }
      ],
      "stateMutability": "view",
      "type": "function"
    },
    {
      "inputs": [],
      "name": "inspector",
      "outputs": [
        {
          "internalType": "address",
          "name": "",
          "type": "address"
        }
      ],
      "stateMutability": "view",
      "type": "function"
    },
    {
      "inputs": [
        {
          "internalType": "uint256",
          "name": "",
          "type": "uint256"
        }
      ],
      "name": "isListed",
      "outputs": [
        {
          "internalType": "bool",
          "name": "",
          "type": "bool"
        }
      ],
      "stateMutability": "view",
      "type": "function"
    },
    {
      "inputs": [],
      "name": "lender",
      "outputs": [
        {
          "internalType": "address",
          "name": "",
          "type": "address"
        }
      ],
      "stateMutability": "view",
      "type": "function"
    },
    {
      "inputs": [
        {
          "internalType": "uint256",
          "name": "_nftID",
          "type": "uint256"
        },
        {
          "internalType": "address",
          "name": "_buyer",
          "type": "address"
        },
        {
          "internalType": "uint256",
          "name": "_purchasePrice",
          "type": "uint256"
        },
        {
          "internalType": "uint256",
          "name": "_escrowAmount",
          "type": "uint256"
        }
      ],
      "name": "list",
      "outputs": [],
      "stateMutability": "payable",
      "type": "function"
    },
    {
      "inputs": [],
      "name": "nftAddress",
      "outputs": [
        {
          "internalType": "address",
          "name": "",
          "type": "address"
        }
      ],
      "stateMutability": "view",
      "type": "function"
    },
    {
      "inputs": [
        {
          "internalType": "uint256",
          "name": "",
          "type": "uint256"
        }
      ],
      "name": "purchasePrice",
      "outputs": [
        {
          "internalType": "uint256",
          "name": "",
          "type": "uint256"
        }
      ],
      "stateMutability": "view",
      "type": "function"
    },
    {
      "inputs": [
        {
          "internalType": "uint256",
          "name": "",
          "type": "uint256"
        }
      ],
      "name": "saleFinalized",
      "outputs": [
        {
          "internalType": "bool",
          "name": "",
          "type": "bool"
        }
      ],
      "stateMutability": "view",
      "type": "function"
    },
    {
      "inputs": [],
      "name": "seller",
      "outputs": [
        {
          "internalType": "address payable",
          "name": "",
          "type": "address"
        }
      ],
      "stateMutability": "view",
      "type": "function"
    },
    {
      "inputs": [
        {
          "internalType": "uint256",
          "name": "_nftID",
          "type": "uint256"
        },
        {
          "internalType": "bool",
          "name": "_passed",
          "type": "bool"
        }
      ],
      "name": "updateInspectionStatus",
      "outputs": [],
      "stateMutability": "nonpayable",
      "type": "function"
    },
    {
      "stateMutability": "payable",
      "type": "receive"
    }
  ],
  "bytecode": "0x60806040523480156200001157600080fd5b506040516200169e3803806200169e8339818101604052810190620000379190620001f3565b836000806101000a81548173ffffffffffffffffffffffffffffffffffffffff021916908373ffffffffffffffffffffffffffffffffffffffff16021790555082600160006101000a81548173ffffffffffffffffffffffffffffffffffffffff021916908373ffffffffffffffffffffffffffffffffffffffff16021790555081600260006101000a81548173ffffffffffffffffffffffffffffffffffffffff021916908373ffffffffffffffffffffffffffffffffffffffff16021790555080600360006101000a81548173ffffffffffffffffffffffffffffffffffffffff021916908373ffffffffffffffffffffffffffffffffffffffff1602179055505050505062000265565b600080fd5b600073ffffffffffffffffffffffffffffffffffffffff82169050919050565b6000620001768262000149565b9050919050565b620001888162000169565b81146200019457600080fd5b50565b600081519050620001a8816200017d565b92915050565b6000620001bb8262000149565b9050919050565b620001cd81620001ae565b8114620001d957600080fd5b50565b600081519050620001ed81620001c2565b92915050565b6000806000806080858703121562000210576200020f62000144565b5b6000620002208782880162000197565b94505060206200023387828801620001dc565b9350506040620002468782880162000197565b9250506060620002598782880162000197565b91505092959194509250565b61142980620002756000396000f3fe60806040526004361061010d5760003560e01c80639d0e5fd611610095578063bd94b00511610064578063bd94b005146103ae578063c9f0ec7e146103d7578063e740f770146103f3578063ed2cee9e1461040f578063fcce48831461043a57610114565b80639d0e5fd6146102f4578063aa9293801461031d578063b848de3514610346578063bcead63e1461038357610114565b80635bf8633a116100dc5780635bf8633a146101d55780635d19e56c146102005780635eed5fff1461023d57806377762c411461027a57806377fbc4ae146102b757610114565b806308551a531461011957806312065fe01461014457806314a72feb1461016f5780634dd4acaf1461019857610114565b3661011457005b600080fd5b34801561012557600080fd5b5061012e610477565b60405161013b9190610f31565b60405180910390f35b34801561015057600080fd5b5061015961049d565b6040516101669190610f65565b60405180910390f35b34801561017b57600080fd5b5061019660048036038101906101919190610fb1565b6104a5565b005b3480156101a457600080fd5b506101bf60048036038101906101ba9190610fb1565b610511565b6040516101cc9190610fff565b60405180910390f35b3480156101e157600080fd5b506101ea610544565b6040516101f79190610fff565b60405180910390f35b34801561020c57600080fd5b5061022760048036038101906102229190610fb1565b610568565b6040516102349190610f65565b60405180910390f35b34801561024957600080fd5b50610264600480360381019061025f9190610fb1565b610580565b6040516102719190611035565b60405180910390f35b34801561028657600080fd5b506102a1600480360381019061029c9190610fb1565b6105a0565b6040516102ae9190611035565b60405180910390f35b3480156102c357600080fd5b506102de60048036038101906102d99190610fb1565b6105c0565b6040516102eb9190610f65565b60405180910390f35b34801561030057600080fd5b5061031b6004803603810190610316919061107c565b6105d8565b005b34801561032957600080fd5b50610344600480360381019061033f9190610fb1565b610697565b005b34801561035257600080fd5b5061036d600480360381019061036891906110e8565b610a43565b60405161037a9190611035565b60405180910390f35b34801561038f57600080fd5b50610398610a72565b6040516103a59190610fff565b60405180910390f35b3480156103ba57600080fd5b506103d560048036038101906103d09190610fb1565b610a98565b005b6103f160048036038101906103ec9190611128565b610c11565b005b61040d60048036038101906104089190610fb1565b610de4565b005b34801561041b57600080fd5b50610424610eaa565b6040516104319190610fff565b60405180910390f35b34801561044657600080fd5b50610461600480360381019061045c9190610fb1565b610ed0565b60405161046e9190611035565b60405180910390f35b600160009054906101000a900473ffffffffffffffffffffffffffffffffffffffff1681565b600047905090565b60016009600083815260200190815260200160002060003373ffffffffffffffffffffffffffffffffffffffff1673ffffffffffffffffffffffffffffffffffffffff16815260200190815260200160002060006101000a81548160ff02191690831515021790555050565b60076020528060005260406000206000915054906101000a900473ffffffffffffffffffffffffffffffffffffffff1681565b60008054906101000a900473ffffffffffffffffffffffffffffffffffffffff1681565b60066020528060005260406000206000915090505481565b60086020528060005260406000206000915054906101000a900460ff1681565b600a6020528060005260406000206000915054906101000a900460ff1681565b60056020528060005260406000206000915090505481565b600260009054906101000a900473ffffffffffffffffffffffffffffffffffffffff1673ffffffffffffffffffffffffffffffffffffffff163373ffffffffffffffffffffffffffffffffffffffff1614610668576040517f08c379a000000000000000000000000000000000000000000000000000000000815260040161065f90611212565b60405180910390fd5b806008600084815260200190815260200160002060006101000a81548160ff0219169083151502179055505050565b6008600082815260200190815260200160002060009054906101000a900460ff166106c157600080fd5b6009600082815260200190815260200160002060006007600084815260200190815260200160002060009054906101000a900473ffffffffffffffffffffffffffffffffffffffff1673ffffffffffffffffffffffffffffffffffffffff1673ffffffffffffffffffffffffffffffffffffffff16815260200190815260200160002060009054906101000a900460ff1661075b57600080fd5b600960008281526020019081526020016000206000600160009054906101000a900473ffffffffffffffffffffffffffffffffffffffff1673ffffffffffffffffffffffffffffffffffffffff1673ffffffffffffffffffffffffffffffffffffffff16815260200190815260200160002060009054906101000a900460ff166107e457600080fd5b600960008281526020019081526020016000206000600360009054906101000a900473ffffffffffffffffffffffffffffffffffffffff1673ffffffffffffffffffffffffffffffffffffffff1673ffffffffffffffffffffffffffffffffffffffff16815260200190815260200160002060009054906101000a900460ff1661086d57600080fd5b600560008281526020019081526020016000205447101561088d57600080fd5b60006004600083815260200190815260200160002060006101000a81548160ff0219169083151502179055506000600160009054906101000a900473ffffffffffffffffffffffffffffffffffffffff1673ffffffffffffffffffffffffffffffffffffffff164760405161090190611263565b60006040518083038185875af1925050503d806000811461093e576040519150601f19603f3d011682016040523d82523d6000602084013e610943565b606091505b505090508061095157600080fd5b60008054906101000a900473ffffffffffffffffffffffffffffffffffffffff1673ffffffffffffffffffffffffffffffffffffffff166323b872dd306007600086815260200190815260200160002060009054906101000a900473ffffffffffffffffffffffffffffffffffffffff16856040518463ffffffff1660e01b81526004016109e193929190611278565b600060405180830381600087803b1580156109fb57600080fd5b505af1158015610a0f573d6000803e3d6000fd5b505050506001600a600084815260200190815260200160002060006101000a81548160ff0219169083151502179055505050565b60096020528160005260406000206020528060005260406000206000915091509054906101000a900460ff1681565b600360009054906101000a900473ffffffffffffffffffffffffffffffffffffffff1681565b600a600082815260200190815260200160002060009054906101000a900460ff1615610af9576040517f08c379a0000000000000000000000000000000000000000000000000000000008152600401610af0906112fb565b60405180910390fd5b600015156008600083815260200190815260200160002060009054906101000a900460ff16151503610ba4576007600082815260200190815260200160002060009054906101000a900473ffffffffffffffffffffffffffffffffffffffff1673ffffffffffffffffffffffffffffffffffffffff166108fc479081150290604051600060405180830381858888f19350505050158015610b9e573d6000803e3d6000fd5b50610c0e565b600160009054906101000a900473ffffffffffffffffffffffffffffffffffffffff1673ffffffffffffffffffffffffffffffffffffffff166108fc479081150290604051600060405180830381858888f19350505050158015610c0c573d6000803e3d6000fd5b505b50565b600160009054906101000a900473ffffffffffffffffffffffffffffffffffffffff1673ffffffffffffffffffffffffffffffffffffffff163373ffffffffffffffffffffffffffffffffffffffff1614610ca1576040517f08c379a0000000000000000000000000000000000000000000000000000000008152600401610c9890611367565b60405180910390fd5b60008054906101000a900473ffffffffffffffffffffffffffffffffffffffff1673ffffffffffffffffffffffffffffffffffffffff166323b872dd3330876040518463ffffffff1660e01b8152600401610cfe93929190611278565b600060405180830381600087803b158015610d1857600080fd5b505af1158015610d2c573d6000803e3d6000fd5b5050505060016004600086815260200190815260200160002060006101000a81548160ff021916908315150217905550816005600086815260200190815260200160002081905550806006600086815260200190815260200160002081905550826007600086815260200190815260200160002060006101000a81548173ffffffffffffffffffffffffffffffffffffffff021916908373ffffffffffffffffffffffffffffffffffffffff16021790555050505050565b806007600082815260200190815260200160002060009054906101000a900473ffffffffffffffffffffffffffffffffffffffff1673ffffffffffffffffffffffffffffffffffffffff163373ffffffffffffffffffffffffffffffffffffffff1614610e86576040517f08c379a0000000000000000000000000000000000000000000000000000000008152600401610e7d906113d3565b60405180910390fd5b6006600083815260200190815260200160002054341015610ea657600080fd5b5050565b600260009054906101000a900473ffffffffffffffffffffffffffffffffffffffff1681565b60046020528060005260406000206000915054906101000a900460ff1681565b600073ffffffffffffffffffffffffffffffffffffffff82169050919050565b6000610f1b82610ef0565b9050919050565b610f2b81610f10565b82525050565b6000602082019050610f466000830184610f22565b92915050565b6000819050919050565b610f5f81610f4c565b82525050565b6000602082019050610f7a6000830184610f56565b92915050565b600080fd5b610f8e81610f4c565b8114610f9957600080fd5b50565b600081359050610fab81610f85565b92915050565b600060208284031215610fc757610fc6610f80565b5b6000610fd584828501610f9c565b91505092915050565b6000610fe982610ef0565b9050919050565b610ff981610fde565b82525050565b60006020820190506110146000830184610ff0565b92915050565b60008115159050919050565b61102f8161101a565b82525050565b600060208201905061104a6000830184611026565b92915050565b6110598161101a565b811461106457600080fd5b50565b60008135905061107681611050565b92915050565b6000806040838503121561109357611092610f80565b5b60006110a185828601610f9c565b92505060206110b285828601611067565b9150509250929050565b6110c581610fde565b81146110d057600080fd5b50565b6000813590506110e2816110bc565b92915050565b600080604083850312156110ff576110fe610f80565b5b600061110d85828601610f9c565b925050602061111e858286016110d3565b9150509250929050565b6000806000806080858703121561114257611141610f80565b5b600061115087828801610f9c565b9450506020611161878288016110d3565b935050604061117287828801610f9c565b925050606061118387828801610f9c565b91505092959194509250565b600082825260208201905092915050565b7f4f6e6c7920696e73706563746f722063616e2063616c6c2074686973206d657460008201527f686f640000000000000000000000000000000000000000000000000000000000602082015250565b60006111fc60238361118f565b9150611207826111a0565b604082019050919050565b6000602082019050818103600083015261122b816111ef565b9050919050565b600081905092915050565b50565b600061124d600083611232565b91506112588261123d565b600082019050919050565b600061126e82611240565b9150819050919050565b600060608201905061128d6000830186610ff0565b61129a6020830185610ff0565b6112a76040830184610f56565b949350505050565b7f53616c652068617320616c7265616479206265656e2066696e616c697a656400600082015250565b60006112e5601f8361118f565b91506112f0826112af565b602082019050919050565b60006020820190508181036000830152611314816112d8565b9050919050565b7f4f6e6c792073656c6c65722063616e2063616c6c2074686973206d6574686f64600082015250565b600061135160208361118f565b915061135c8261131b565b602082019050919050565b6000602082019050818103600083015261138081611344565b9050919050565b7f4f6e6c792062757965722063616e2063616c6c2074686973206d6574686f6400600082015250565b60006113bd601f8361118f565b91506113c882611387565b602082019050919050565b600060208201905081810360008301526113ec816113b0565b905091905056fea2646970667358221220229d04a61622a804f8ef5264ddefcd5f126dce442471cb12726e985d0225070964736f6c63430008110033",
  "linkReferences": {},
  "deployedLinkReferences": {}
}